S0160000427574746F6E466C6173684143582E73726563C8
S113000071C000008EC000008CC000008AC00000D7
S113001088C0000086C0000084C0000082C00000C8
S113002080C000007EC000007CC000007AC00000D8
S113003078C0000076C0000074C0000072C00000E8
S113004070C000006EC000006CC000006AC00000F8
S113005068C00000EBC1000064C0000062C0000082
S113006060C000005EC000005CC000005AC0000018
S113007058C0000056C0000054C0000052C0000028
S113008050C000004EC000004CC000004AC0000038
S113009048C0000046C0000044C0000042C0000048
S11300A040C000003EC000003CC000003AC0000058
S11300B038C0000036C0000034C0000032C0000068
S11300C030C000002EC000002CC000002AC0000078
S11300D028C0000026C0000024C0000022C0000088
S11300E020C0000011241FBECFEFD1E2DEBFCDBF80
S11300F000E00CBF12E0A0E0B2E0EAE3F5E000E0CB
S11301000BBF02C007900D92A232B107D9F72AE0C3
S1130110A2E2B2E001C01D92AB35B207E1F7ABD069
S11301200AC26ECF2F923F924F925F926F927F924C
S11301308F929F92AF92BF92CF92DF92EF92FF92F3
S11301400F931F93CF93DF932091260230915A0A85
S1130150F894EDB6FEB67894E8E2F2E0220FC2E13C
S1130160D2E0C20FD11D1991D881C12F18811A3A3A
S113017021F080912602912DA5C1220FE20FF11DDD
S1130180E192F0822091590A30912702409148026D
S1130190232B242B3091260240915A0A68E088943C
S11301A033953770441F411D742F422319F06A950B
S11301B0B9F7E8CF3093260270935A0AE8E2F2E0E6
S11301C0330F330FE30FF11D21913081F8942DBFCC
S11301D03EBF7894DF91CF911F910F91FF90EF90E4
S11301E0DF90CF90BF90AF909F908F907F906F9053
S11301F05F90852D4F90942D3F90632D2F90722DFD
S11302000895EEE0F2E0E80FF11D849108950102F3
S113021004081020408080B310BA83E081BBC1E0A1
S1130220D0E0E0910202F0910302EE0FFF1FE45FC1
S1130230FD4F808191819093030280930202D093B9
S11302400102C093000280ED97E0DAD08FB12091D3
S1130250040230910502837090E08217930739F00D
S11302608FB1837090E0909305028093040285E03F
S113027090E0C6D0D6CF8FE080930701109208019A
S113028010BA83E081BB45D041E06BE071E081E0CE
S113029002D0279AFFCFCF93DF93C82FD42FE82F14
S11302A0F0E0EE0FFF1FEE0FFF1F9F01285D3D4F93
S11302B0F901A281B3816C93CD010197FC01708394
S11302C00197FC0110825597F901B183A0838C2F0B
S11302D098DFDD2341F0982F90958091590A982357
S11302E09093590A05C09091590A982B9093590AF2
S11302F080912602C81301C045DFDF91CF91089594
S113030082E084BD9AEF97BD80936E0083E085BD43
S11303100895CF93DF93F8948EEF8093590A109247
S11303204802109227021092260281E080935A0A12
S1130330C8E2D2E088E493E0998388839B838A832C
S113034088E494E09D838C839F838E8388E495E086
S1130350998788879B878A8788E496E09D878C871E
S11303609F878E8788E497E0998B888B9B8B8A8BF9
S113037088E498E09D8B8C8B9F8B8E8B88E499E02E
S1130380998F888F9B8F8A8F88E49AE09D8F8C8FBA
S11303909F8F8E8F8AEA80934902809349038093CA
S11303A049048093490580934906809349078093C3
S11303B0490880934909A4DFEDB7FEB7A881B98144
S11303C085818C93A881B981848111978C93A881AC
S11303D0B981838112978C93A881B9818281139703
S11303E08C93888199812181FC01349720838881B1
S11303F0998105979EBF8DBF7894DF91CF91089521
S11304009C019FB7F894E0912602F0E0EE0FFF1FE5
S1130410E75BF54F318320832091270280915A0AAC
S1130420822B809327029FBF7DCE08951F920F9247
S11304300FB60F9211240BB60F922F933F934F9345
S11304405F938F939F93AF93BF93EF93FF938091A9
S1130450220290912302A0912402B09125020196D8
S1130460A11DB11D8093220290932302A093240224
S1130470B093250230912702E9E4FAE049E55AE015
S113048021E080819181019781939193892B19F4C3
S1130490822F80953823220FE417F50791F73093C4
S11304A02702FF91EF91BF91AF919F918F915F913F
S11304B04F913F912F910F900BBE0F900FBE0F9055
S11304C01F901895AC01279A2F982FEF31EE74E006
S11304D0215030407040E1F700C0000060E080E04F
S11304E05523FCF0262F382F95B1905895B99FEFDE
S11304F0E0E772E09150E0407040E1F700C0000096
S113050095B1905895B99FEFE9E678E19150E040B4
S11305107040E1F700C000002F5F3F4F42175307C0
S11305201CF79FEFE3E224EF9150E0402040E1F715
S10D053000C00000D5CFF894FFCFFF
S113053A010001000300020001000200030003009D
S113054A010049024903490449054906490749087A
S105055A490949
S9030000FC
