S0160000427574746F6E466C6173684143582E73726563C8
S113000071C000008EC000008CC000008AC00000D7
S113001088C0000086C0000084C0000082C00000C8
S113002080C000007EC000007CC000007AC00000D8
S113003078C0000076C0000074C0000072C00000E8
S113004070C000006EC000006CC000006AC00000F8
S113005068C000006BC2000064C0000062C0000001
S113006060C000005EC000005CC000005AC0000018
S113007058C0000056C0000054C0000052C0000028
S113008050C000004EC000004CC000004AC0000038
S113009048C0000046C0000044C0000042C0000048
S11300A040C000003EC000003CC000003AC0000058
S11300B038C0000036C0000034C0000032C0000068
S11300C030C000002EC000002CC000002AC0000078
S11300D028C0000026C0000024C0000022C0000088
S11300E020C0000011241FBECFEFD1E2DEBFCDBF80
S11300F000E00CBF12E0A0E0B2E0E4E5F6E000E0CE
S11301000BBF02C007900D92A034B107D9F72AE0C3
S1130110A0E4B2E001C01D92AB37B207E1F702D10F
S113012097C26ECF2F923F924F925F926F927F92BF
S11301308F929F92AF92BF92CF92DF92EF92FF92F3
S11301400F931F93CF93DF932091460230917A0A45
S1130150F894EDB6FEB67894E8E4F2E0220FC0E33A
S1130160D2E0C20FD11D1991D881C12F18811A3A3A
S113017021F080914602912D32C2220FE20FF11D2F
S1130180E192F0822091790A30914702409168020D
S1130190232B242B3091460240917A0A68E08894FC
S11301A033953770441F411D742F422319F06A950B
S11301B0B9F7E8CF3093460270937A0AE8E4F2E0A4
S11301C0330F330FE30FF11D21913081F8942DBFCC
S11301D03EBF7894DF91CF911F910F91FF90EF90E4
S11301E0DF90CF90BF90AF909F908F907F906F9053
S11301F05F90852D4F90942D3F90632D2F90722DFD
S11302000895EEE0F2E0E80FF11D849108950102F3
S113021004081020408080B310BA83E081BB279A81
S1130220C1E0D0E08FB1837090E020910202309160
S113023003028217930799F1E0910202F0910302FD
S1130240EE0FFF1FEE0FFF1FE80FF91FEE0FFF1F4A
S1130250EC5FFD4F2081318121153105E1F0E09102
S11302604002F091410221503109A901440F551F68
S1130270240F351F2E0F3F1F220F331FF901EC5D92
S1130280FD4F208131813093410220934002D0936D
S11302900102C0930002909303028093020285E05E
S11302A090E02ED1BFCFE7E0F1E080818F608083C2
S11302B0C8E0D1E088818160888388EE93E020D112
S11302C08881807F888388818260888388EE93E038
S11302D017D18881807F888388818460888388EEB1
S11302E093E00ED18881807F8883888188608883A9
S11302F088EE93E005D18881807F8883DBCFE7E0B7
S1130300F1E080818F608083C8E0D1E088818F60D4
S1130310888388EC90E0F4D08881188288EE93E09A
S1130320EFD0F4CF8FE0809307011092080110BA48
S113033083E081BB6ED041E06BE071E081E02BD0C3
S1130340C8E0D1E08091000290910102892BF9F07C
S113035080914002909141028130910549F08230B0
S1130360910561F0892B79F482E02CD118820BC0BD
S113037041E063E571E082E00ED005C041E06FE743
S113038071E082E008D0109201021092000285E030
S113039090E0B6D0D7CFCF93DF93C82FD42FE82FD8
S11303A0F0E0EE0FFF1FEE0FFF1F9F01285B3D4F94
S11303B0F901A281B3816C93CD010197FC01708393
S11303C00197FC0110825597F901B183A0838C2F0A
S11303D018DFDD2341F0982F90958091790A9823B6
S11303E09093790A05C09091790A982B9093790A91
S11303F080914602C81301C0C5DEDF91CF910895F4
S113040082E084BD9AEF97BD80936E0083E085BD42
S11304100895CF93DF93F8948EEF8093790A109226
S11304206802109247021092460281E080937A0A91
S1130430C8E4D2E088E693E0998388839B838A8327
S113044088E694E09D838C839F838E8388E695E081
S1130450998788879B878A8788E696E09D878C871B
S11304609F878E8788E697E0998B888B9B8B8A8BF6
S113047088E698E09D8B8C8B9F8B8E8B88E699E029
S1130480998F888F9B8F8A8F88E69AE09D8F8C8FB7
S11304909F8F8E8F8AEA8093690280936903809389
S11304A06904809369058093690680936907809342
S11304B0690880936909A4DFEDB7FEB7A881B98103
S11304C085818C93A881B981848111978C93A881AB
S11304D0B981838112978C93A881B9818281139702
S11304E08C93888199812181FC01349720838881B0
S11304F0998105979EBF8DBF7894DF91CF91089520
S11305009C019FB7F894E0914602F0E0EE0FFF1FC4
S1130510E759F54F318320832091470280917A0A6D
S1130520822B809347029FBFFDCD08951F920F92A7
S11305300FB60F9211240BB60F922F933F934F9344
S11305405F938F939F93AF93BF93EF93FF938091A8
S1130550420290914302A0914402B0914502019657
S1130560A11DB11D8093420290934302A0934402C3
S1130570B093450230914702E9E6FAE049E75AE0D0
S113058021E080819181019781939193892B19F4C2
S1130590822F80953823220FE417F50791F73093C3
S11305A04702FF91EF91BF91AF919F918F915F911E
S11305B04F913F912F910F900BBE0F900FBE0F9054
S11305C01F90189521E030E002C0220F331F8A9556
S11305D0E2F78091790A282B2093790A0895AC01D7
S11305E0279A2F982FEF31EE74E02150304070405D
S11305F0E1F700C0000060E080E05523FCF0262F06
S1130600382F95B1905895B99FEFE0E772E091507B
S1130610E0407040E1F700C0000095B1905895B9F2
S11306209FEFE9E678E19150E0407040E1F700C0C7
S113063000002F5F3F4F421753071CF79FEFE3E281
S113064024EF9150E0402040E1F700C00000D5CFF6
S1070650F894FFCF48
S1130654010003000000010002000000000000008B
S1130664000002000000000000000100000000007F
S1130674000000000100000001000200020000006C
S113068469026903690469056906690769086909EE
S9030000FC
