S0160000427574746F6E466C6173684143582E73726563C8
S113000071C000008EC000008CC000008AC00000D7
S113001088C0000086C0000084C0000082C00000C8
S113002080C000007EC000007CC000007AC00000D8
S113003078C0000076C0000074C0000072C00000E8
S113004070C000006EC000006CC000006AC00000F8
S113005068C0000051C2000064C0000062C000001B
S113006060C000005EC000005CC000005AC0000018
S113007058C0000056C0000054C0000052C0000028
S113008050C000004EC000004CC000004AC0000038
S113009048C0000046C0000044C0000042C0000048
S11300A040C000003EC000003CC000003AC0000058
S11300B038C0000036C0000034C0000032C0000068
S11300C030C000002EC000002CC000002AC0000078
S11300D028C0000026C0000024C0000022C0000088
S11300E020C0000011241FBECFEFD1E2DEBFCDBF80
S11300F000E00CBF12E0A0E0B2E0E0E2F6E000E0D5
S11301000BBF02C007900D92A032B107D9F72AE0C5
S1130110A0E2B2E001C01D92A935B207E1F7E8D030
S11301207DC26ECF2F923F924F925F926F927F92D9
S11301308F929F92AF92BF92CF92DF92EF92FF92F3
S11301400F931F93CF93DF93209124023091580A89
S1130150F894EDB6FEB67894E6E2F2E0220FC0E140
S1130160D2E0C20FD11D1991D881C12F18811A3A3A
S113017021F080912402912D18C2220FE20FF11D6B
S1130180E192F0822091570A309125024091460273
S1130190232B242B309124024091580A68E0889440
S11301A033953770441F411D742F422319F06A950B
S11301B0B9F7E8CF309324027093580AE6E2F2E0EC
S11301C0330F330FE30FF11D21913081F8942DBFCC
S11301D03EBF7894DF91CF911F910F91FF90EF90E4
S11301E0DF90CF90BF90AF909F908F907F906F9053
S11301F05F90852D4F90942D3F90632D2F90722DFD
S11302000895EEE0F2E0E80FF11D849108950102F3
S113021004081020408080B310BA83E081BBE7E07B
S1130220F1E0808181608083C1E0D0E08FB1837090
S1130230833099F0E0910202F0910302EE0FFF1F68
S1130240E65FFD4F808191819093030280930202C7
S1130250D0930102C093000208C0D0930302C0935C
S11302600202D0930102C093000285E090E02ED1F7
S1130270DDCFE7E0F1E080818F608083C8E0D1E0EA
S113028088818160888388EE93E020D18881807F93
S1130290888388818260888388EE93E017D188817F
S11302A0807F888388818460888388EE93E00ED180
S11302B08881807F888388818860888388EE93E042
S11302C005D18881807F8883DBCFE7E0F1E08081FE
S11302D08F608083C8E0D1E088818F60888388EC58
S11302E090E0F4D08881188288EE93E0EFD0F4CFC8
S11302F08FE0809307011092080110BA83E081BB5C
S11303006ED041E06BE071E081E02BD0C8E0D1E039
S11303108091000290910102892BF9F080910202F0
S1130320909103028230910549F08330910561F088
S1130330019779F482E02CD118820BC041E069E383
S113034071E082E00ED005C041E065E671E082E034
S113035008D0109201021092000285E090E0B6D01D
S1130360D7CFCF93DF93C82FD42FE82FF0E0EE0F31
S1130370FF1FEE0FFF1F9F012A5D3D4FF901A28170
S1130380B3816C93CD010197FC0170830197FC014B
S113039010825597F901B183A0838C2F32DFDD23BE
S11303A041F0982F90958091570A98239093570A7B
S11303B005C09091570A982B9093570A8091240274
S11303C0C81301C0DFDEDF91CF91089582E084BDC0
S11303D09AEF97BD80936E0083E085BD0895CF9317
S11303E0DF93F8948EEF8093570A1092460210928E
S11303F025021092240281E08093580AC6E2D2E0DA
S113040086E493E0998388839B838A8386E494E0DB
S11304109D838C839F838E8386E495E09987888768
S11304209B878A8786E496E09D878C879F878E8743
S113043086E497E0998B888B9B8B8A8B86E498E083
S11304409D8B8C8B9F8B8E8B86E499E0998F888F04
S11304509B8F8A8F86E49AE09D8F8C8F9F8F8E8FDF
S11304608AEA8093470280934703809347048093EA
S113047047058093470680934707809347088093F6
S11304804709A4DFEDB7FEB7A881B98185818C93B4
S1130490A881B981848111978C93A881B9818381C2
S11304A012978C93A881B981828113978C93888148
S11304B099812181FC013497208388819981059752
S11304C09EBF8DBF7894DF91CF9108959C019FB713
S11304D0F894E0912402F0E0EE0FFF1FE95BF54F82
S11304E031832083209125028091580A822B8093A6
S11304F025029FBF17CE08951F920F920FB60F9239
S113050011240BB60F922F933F934F935F938F93C6
S11305109F93AF93BF93EF93FF93809120029091A9
S11305202102A0912202B09123020196A11DB11DC6
S11305308093200290932102A0932202B09323027D
S113054030912502E7E4FAE047E55AE021E08081B2
S11305509181019781939193892B19F4822F80952E
S11305603823220FE417F50791F730932502FF9102
S1130570EF91BF91AF919F918F915F914F913F9177
S11305802F910F900BBE0F900FBE0F901F901895D8
S113059021E030E002C0220F331F8A95E2F78091F8
S11305A0570A282B2093570A0895AC01279A2F98AD
S11305B02FEF31EE74E0215030407040E1F700C07D
S11305C0000060E080E05523FCF0262F382F95B121
S11305D0905895B99FEFE0E772E09150E040704089
S11305E0E1F700C0000095B1905895B99FEFE9E696
S11305F078E19150E0407040E1F700C000002F5FC7
S11306003F4F421753071CF79FEFE3E224EF91504B
S1130610E0402040E1F700C00000D5CFF894FFCFC0
S113062001000100020001000200030003000100B8
S11306304702470347044705470647074708470952
S9030000FC
